:100000000C9434000C943E000C943E000C943E0082
:100010000C943E000C943E000C943E000C943E0068
:100020000C943E000C943E000C943E000C943E0058
:100030000C943E000C943E000C943E000C943E0048
:100040000C943E000C943E000C943E000C943E0038
:100050000C943E000C943E000C943E000C943E0028
:100060000C943E000C943E0011241FBECFEFD8E04C
:10007000DEBFCDBF0E945F000C9464000C940000B2
:10008000259A8CE291E02D9A2FEF33EC49E0215034
:1000900030404040E1F700C000002D982FEF33ECD6
:1000A00049E0215030404040E1F700C00000019796
:1000B00051F70895259A529A4A992D9A08950E94C7
:0C00C0005A0080E090E00895F894FFCF13
:00000001FF
